:020000040800F2
:1000000000C00020B91F0008591100085B1100084A
:100010005D1100085F110008611100080000000078
:100020000000000000000000000000006311000854
:100030006511000800000000671100086911000840
:10004000012000080120000801200008012000080C
:1000500001200008012000080120000801200008FC
:1000600001200008012000080120000801200008EC
:1000700001200008012000080120000801200008DC
:1000800001200008012000080120000801200008CC
:1000900001200008012000080120000801200008BC
:1000A00001200008012000080120000801200008AC
:1000B000012000080120000801200008012000089C
:1000C000012000080120000801200008012000088C
:1000D000012000080120000801200008012000087C
:1000E000012000080120000801200008012000086C
:1000F000012000080120000801200008012000085C
:10010000012000080120000801200008012000084B
:10011000012000080120000801200008012000083B
:10012000012000080120000801200008012000082B
:1001300000000000000000000000000000000000BF
:1001400000000000000000000000000000000000AF
:10015000000000000000000000000000000000009F
:10016000000000000000000000000000000000008F
:10017000000000000000000000000000000000007F
:10018000000000000000000000000000000000006F
:10019000000000000000000000000000000000005F
:1001A000000000000000000000000000000000004F
:1001B000000000000000000000000000000000003F
:1001C000000000000000000000000000000000002F
:1001D000000000000000000000000000000000001F
:0401E0005FF8E0F1F3
:1001E80010B5054C237833B9044B13B10448AFF369
:1001F80000800123237010BDB80900200000000012
:100208008081000808B5034B1BB103490348AFF3CD
:10021800008008BD00000000BC09002080810008A3
:10022800844641EA000313F0030349D1403A23D33B
:100238000B6803604B6843608B688360CB68C3605E
:100248000B6903614B6943618B698361CB69C36146
:100258000B6A03624B6A43628B6A8362CB6AC3622E
:100268000B6B03634B6B43638B6B8363CB6BC36316
:1002780040304031403ADBD230320BD30B68036058
:100288004B6843608B688360CB68C3601030103163
:10029800103AF3D20C3205D351F8043B40F8043B32
:1002A800043AF9D2043208D0D2071CBF11F8013B36
:1002B80000F8013B01D30B8803806046704700BFFC
:1002C800082A13D38B07B1D010F00303AED0C3F1C3
:1002D8000403D21ADB071CBF11F8013B00F8013BED
:1002E800A4D331F8023B20F8023B9FE7043AD9D364
:1002F800013A11F8013B00F8013BF9D20B78037081
:100308004B7843708B7883706046704781F000416A
:1003180002E000BF83F0004330B54FEA41044FEAE2
:10032800430594EA050F08BF90EA020F1FBF54EA7D
:10033800000C55EA020C7FEA645C7FEA655C00F019
:10034800E2804FEA5454D4EB5555B8BF6D420CDDEA
:100358002C4480EA020281EA030382EA000083EA6D
:10036800010180EA020281EA0303362D88BF30BD0D
:1003780011F0004F4FEA01314FF4801C4CEA113163
:1003880002D0404261EB410113F0004F4FEA0333C2
:100398004CEA133302D0524263EB430394EA050F4D
:1003A80000F0A780A4F10104D5F1200E0DDB02FABC
:1003B8000EFC22FA05F2801841F1000103FA0EF250
:1003C800801843FA05F359410EE0A5F120050EF116
:1003D800200E012A03FA0EFC28BF4CF0020C43FA47
:1003E80005F3C01851EBE37101F0004507D54FF054
:1003F800000EDCF1000C7EEB00006EEB0101B1F5A4
:10040800801F1BD3B1F5001F0CD349085FEA3000E9
:100418004FEA3C0C04F101044FEA445212F5800FF4
:1004280080F09A80BCF1004F08BF5FEA500C50F191
:10043800000041EB045141EA050130BD5FEA4C0C74
:10044800404141EB0101013C28BFB1F5801FE9D2D1
:1004580091F0000F04BF01460020B1FA81F308BFF4
:100468002033A3F10B03B3F120020CDA0C3208DDC0
:1004780002F1140CC2F10C0201FA0CF021FA02F19B
:100488000CE002F11402D8BFC2F1200C01FA02F10B
:1004980020FA0CFCDCBF41EA0C019040E41AA2BF30
:1004A80001EB0451294330BD6FEA04041F3C1CDAF8
:1004B8000C340EDC04F11404C4F1200220FA04F018
:1004C80001FA02F340EA030021FA04F345EA0301C2
:1004D80030BDC4F10C04C4F1200220FA02F001FA84
:1004E80004F340EA0300294630BD21FA04F0294606
:1004F80030BD94F0000F83F4801306BF81F480119F
:100508000134013D4EE77FEA645C18BF7FEA655C11
:1005180029D094EA050F08BF90EA020F05D054EAE3
:10052800000C04BF1946104630BD91EA030F1EBFE8
:100538000021002030BD5FEA545C05D140004941EC
:1005480028BF41F0004130BD14F580043CBF01F5DF
:10055800801130BD01F0004545F0FE4141F47001C5
:100568004FF0000030BD7FEA645C1ABF19461046A0
:100578007FEA655C1CBF0B46024650EA013406BFA1
:1005880052EA033591EA030F41F4002130BD00BF60
:1005980090F0000F04BF0021704730B54FF480641D
:1005A80004F132044FF000054FF0000150E700BF9E
:1005B80090F0000F04BF0021704730B54FF48064FD
:1005C80004F1320410F0004548BF40424FF00001EA
:1005D8003EE700BF42004FEAE2014FEA31014FEA2D
:1005E80002701FBF12F07F4393F07F4F81F060517C
:1005F800704732F07F4208BF704793F07F4F04BFC7
:1006080041F40021704730B54FF4607401F00045A3
:1006180021F000411CE700BF50EA010208BF704703
:1006280030B54FF000050AE050EA010208BF7047F4
:1006380030B511F0004502D5404261EB41014FF45D
:10064800806404F132045FEA915C3FF4D8AE4FF065
:1006580003025FEADC0C18BF03325FEADC0C18BF48
:10066800033202EBDC02C2F1200300FA03FC20FA99
:1006780002F001FA03FE40EA0E0021FA02F11444E6
:10068800BDE600BF70B54FF0FF0C4CF4E06C1CEAFF
:1006980011541DBF1CEA135594EA0C0F95EA0C0F70
:1006A80000F0DEF82C4481EA030621EA4C5123EAE3
:1006B8004C5350EA013518BF52EA033541F4801112
:1006C80043F4801338D0A0FB02CE4FF00005E1FBC5
:1006D80002E506F00042E0FB03E54FF00006E1FB0F
:1006E80003569CF0000F18BF4EF0010EA4F1FF0452
:1006F800B6F5007F64F5407404D25FEA4E0E6D4192
:1007080046EB060642EAC62141EA55514FEAC520A2
:1007180040EA5E504FEACE2EB4F1FD0C88BFBCF51E
:10072800E06F1ED8BEF1004F08BF5FEA500E50F1CF
:10073800000041EB045170BD06F0004646EA010195
:1007480040EA020081EA0301B4EB5C04C2BFD4EBC7
:100758000C0541EA045170BD41F480114FF0000EC0
:10076800013C00F3AB8014F1360FDEBF002001F02E
:10077800004170BDC4F10004203C35DA0C341BDCA8
:1007880004F11404C4F1200500FA05F320FA04F07A
:1007980001FA05F240EA020001F0004221F00041AE
:1007A80010EBD37021FA04F642EB06015EEA430E21
:1007B80008BF20EAD37070BDC4F10C04C4F1200551
:1007C80000FA04F320FA05F001FA04F240EA020004
:1007D80001F0004110EBD37041F100015EEA430ED5
:1007E80008BF20EAD37070BDC4F1200500FA05F2F5
:1007F8004EEA020E20FA04F301FA05F243EA020374
:1008080021FA04F001F0004121FA04F220EA020082
:1008180000EBD3705EEA430E08BF20EAD37070BDC8
:1008280094F0000F0FD101F00046400041EB0101A8
:1008380011F4801F08BF013CF7D041EA060195F08A
:10084800000F18BF704703F00046520043EB030344
:1008580013F4801F08BF013DF7D043EA0603704731
:1008680094EA0C0F0CEA135518BF95EA0C0F0CD03C
:1008780050EA410618BF52EA4306D1D181EA030182
:1008880001F000414FF0000070BD50EA410606BF7C
:100898001046194652EA430619D094EA0C0F02D1C1
:1008A80050EA013613D195EA0C0F05D152EA033606
:1008B8001CBF104619460AD181EA030101F0004124
:1008C80041F0FE4141F470014FF0000070BD41F06D
:1008D800FE4141F4780170BD70B54FF0FF0C4CF447
:1008E800E06C1CEA11541DBF1CEA135594EA0C0F66
:1008F80095EA0C0F00F0A7F8A4EB050481EA030EB3
:1009080052EA03354FEA013100F088804FEA033399
:100918004FF0805545EA131343EA12634FEA022267
:1009280045EA111545EA10654FEA00260EF0004128
:100938009D4208BF964244F1FD0404F5407402D27A
:100948005B084FEA3202B61A65EB03055B084FEA0B
:1009580032024FF480104FF4002CB6EB020E75EB08
:10096800030E22BFB61A754640EA0C005B084FEA30
:100978003202B6EB020E75EB030E22BFB61A7546AD
:1009880040EA5C005B084FEA3202B6EB020E75EBF8
:10099800030E22BFB61A754640EA9C005B084FEA70
:1009A8003202B6EB020E75EB030E22BFB61A75467D
:1009B80040EADC0055EA060E18D04FEA051545EA6C
:1009C80016754FEA06164FEAC30343EA52734FEA15
:1009D800C2025FEA1C1CC0D111F4801F0BD141EA8E
:1009E80000014FF000004FF0004CB6E711F4801FF3
:1009F80004BF01430020B4F1FD0C88BFBCF5E06FD3
:100A08003FF6AFAEB5EB030C04BFB6EB020C5FEAE2
:100A1800500C50F1000041EB045170BD0EF0004E37
:100A28004EEA113114EB5C04C2BFD4EB0C0541EA69
:100A3800045170BD41F480114FF0000E013C90E666
:100A480045EA060E8DE60CEA135594EA0C0F08BF2A
:100A580095EA0C0F3FF43BAF94EA0C0F0AD150EA29
:100A680001347FF434AF95EA0C0F7FF425AF1046BC
:100A780019462CE795EA0C0F06D152EA03353FF4E4
:100A8800FDAE1046194622E750EA410618BF52EA61
:100A980043067FF4C5AE50EA41047FF40DAF52EA35
:100AA80043057FF4EBAE12E74FF0FF3C06E000BFD2
:100AB8004FF0010C02E000BF4FF0010C4DF804CDDF
:100AC8004FEA410C7FEA6C5C4FEA430C18BF7FEA9F
:100AD8006C5C1BD001B050EA410C0CBF52EA430CCD
:100AE80091EA030F02BF90EA020F0020704710F14D
:100AF800000F91EA030F58BF994208BF90422CBFDC
:100B0800D8176FEAE37040F0010070474FEA410CD4
:100B18007FEA6C5C02D150EA013C07D14FEA430CF2
:100B28007FEA6C5CD6D152EA033CD3D05DF8040B63
:100B3800704700BF8446104662468C461946634695
:100B480000E000BF01B5FFF7B7FF002848BF10F16C
:100B5800000F01BD4DF808EDFFF7F4FF0CBF0120B1
:100B680000205DF808FB00BF4DF808EDFFF7EAFF2D
:100B780034BF012000205DF808FB00BF4DF808EDE8
:100B8800FFF7E0FF94BF012000205DF808FB00BFDD
:100B98004DF808EDFFF7CEFF94BF012000205DF867
:100BA80008FB00BF4DF808EDFFF7C4FF34BF012074
:100BB80000205DF808FB00BF4FEA410C7FEA6C5C3F
:100BC80002D150EA013C0AD14FEA430C7FEA6C5C3F
:100BD80002D152EA033C02D14FF0000070474FF0B7
:100BE800010070474FEA410212F5001215D211D5E3
:100BF8006FF47873B3EB625212D94FEAC12343F012
:100C0800004343EA505311F0004F23FA02F018BF93
:100C1800404270474FF00000704750EA013005D15C
:100C280011F0004008BF6FF0004070474FF000001F
:100C3800704700BF53B94AB9002908BF00281CBF34
:100C48004FF0FF314FF0FF3000F06EB9ADF1080CF6
:100C58006DE904CE00F006F8DDF804E0DDE90223D2
:100C680004B070472DE9F047089E0D4604468E46AD
:100C7800002B40F083808A42174647D9B2FA82F3A4
:100C88004BB1C3F1200105FA03FE20FA01F19F40A0
:100C980041EA0E0E9C404FEA1748BEFBF8FC1FFACB
:100CA80087F908FB1CE20CFB09F0210C41EA02421F
:100CB80090420AD9BA180CF1FF3180F0188190429D
:100CC80040F21581ACF1020C3A44121AB2FBF8F06A
:100CD80008FB102200FB09F1A4B244EA0244A14235
:100CE80009D93C1900F1FF3280F00381A14240F29A
:100CF800008102383C44641A002140EA0C401EB1CD
:100D08000022DC40C6E90042BDE8F08702B9FFDEF8
:100D1800B2FA82F3002B4FD18D1A01214FEA124EFD
:100D28001FFA82F8B5FBFEFC0EFB1C5508FB0CF005
:100D3800220C42EA0545A84207D97D190CF1FF3279
:100D480002D2A84200F2E98094462D1AB5FBFEF0C3
:100D58000EFB105508FB00F8A4B244EA0544A04570
:100D680007D93C1900F1FF3202D2A04500F2D98020
:100D78001046A4EB080440EA0C40C0E78B4208D9AF
:100D8800002E00F0B1800021C6E900050846BDE844
:100D9800F087B3FA83F100294BD1AB4202D38242E8
:100DA80000F2B980841A65EB030301209E46002EE9
:100DB800AAD0C6E9004EA7E79F40C3F12002D14060
:100DC8004FEA174EB1FBFEF01FFA87F80EFB101121
:100DD80024FA02F29D4000FB08FC2A43150C45EA60
:100DE8000145AC4504FA03F409D97D1900F1FF3136
:100DF80080F08F80AC4540F28C8002383D44A5EBF2
:100E08000C05B5FBFEF10EFB115C01FB08F995B270
:100E180045EA0C45A94507D97D1901F1FF3274D27D
:100E2800A94572D902393D44A5EB090541EA0041BB
:100E380078E7C1F120078B4022FA07FC4CEA030C43
:100E480025FA07F44FEA1C4EB4FBFEF91FFA8CF89A
:100E58000EFB194420FA07F309FB08FA8D401D43DD
:100E68002B0C43EA0444A24502FA01F200FA01F30A
:100E780009D91CEB040409F1FF3048D2A24546D930
:100E8800A9F102096444A4EB0A04B4FBFEF00EFBCA
:100E9800104400FB08FAADB245EA0444A24508D95B
:100EA8001CEB040400F1FF352DD2A2452BD90238E2
:100EB800644440EA0940A0FB0289A4EB0A044C45BB
:100EC800C6464D4619D316D05EB1B3EB0E0264EB9D
:100ED800050404FA07F722FA01F31F43CC40C6E9D8
:100EE80000740021BDE8F087314630460CE78C4697
:100EF800EBE61046FFE64345E6D2B8EB020E69EB97
:100F08000C050138E0E72846D3E711468CE781460F
:100F1800B9E7084673E7084649E7ACF1020C3D44D7
:100F280013E702383C4424E7704700BF08B5054B77
:100F38001860054B1868002302221946806801F0E2
:100F4800EBF808BDD40900200C000020022801D8C5
:100F58000120704708B501F051F80923036000200B
:100F680008BD000010B5013801280AD814464FF012
:100F7800FF3392B20748006800F03DFF40B92046B1
:100F880010BD01F03BF8092303604FF0FF30F7E78D
:100F98000520F5E7D4090020022801D80020704771
:100FA80008B501F02BF8092303604FF0FF3008BDA6
:100FB80008B501F023F8092303604FF0FF3008BD9E
:100FC80008B548B94FF0FF3301220848006800F01F
:100FD8007EFF40B9012008BD01F010F80923036025
:100FE8004FF0FF30F7E70520F5E700BFD4090020F0
:100FF80008B5022804D84FF400534B60002008BD00
:1010080000F0FCFF09230360F8E7000030B587B063
:1010180000240294039404940594144B9A6942F0B2
:1010280020029A619A6902F020020092009A9A6955
:1010380042F004029A619B6903F004030193019B47
:101048000B4D22464FF48071284600F0E9FA4FF420
:10105800807302930123039304940223059302A946
:10106800284600F0C1F907B030BD00BF00100240AB
:101078000008014030B591B0002409940B940C94F9
:1010880001940294039404940594012206924FF467
:101098008033079308940A9202250D950E934FF416
:1010A800E0130F9306A800F0E1FA0F2301930295CD
:1010B80003944FF4806304930594294601A800F033
:1010C80013FD11B030BD000008B500F0F9F8FFF7C6
:1010D800D1FFFFF79BFF00F077F80848FFF726FFDE
:1010E8004FF4FA7000F010F94FF48071044800F0E2
:1010F8009DFA044800F0FCFFF2E700BFDC0900207D
:1011080000080140988100087047000082B00E4B2B
:101118009A6942F001029A619A6902F0010200920A
:10112800009ADA6942F08052DA61DB6903F0805391
:101138000193019B054A536823F0E06343F0806301
:10114800536002B0704700BF001002400000014029
:101158007047FEE7FEE7FEE7FEE770477047704717
:1011680008B500F0BFF808BD0120704708B500F0C9
:1011780045FF162303604FF0FF3008BD08B54FF058
:10118800FF31FFF7F3FFFEE708B503460B4A126885
:1011980042B10A4A106803446A46934206D8074A8D
:1011A800136008BD054A06491160F2E700F026FF02
:1011B8000C2303604FF0FF30F3E700BFD80900208D
:1011C800800A00207047000008B50A480A4B0360EF
:1011D8004FF4E133436000238360C36003610C2252
:1011E80042618361C36100F0D7FD00B908BDFFF714
:1011F8008BFFFBE7DC0900200038014010B586B002
:10120800002302930393049305930268174B9A42B1
:1012180001D006B010BD03F558439A6942F48042E4
:101228009A619A6902F480420092009A9A6942F09F
:1012380004029A619B6903F004030193019B4FF434
:10124800007302930223039303230593084C02A916
:10125800204600F0C9F84FF48063029300230393FB
:10126800049302A9204600F0BFF8D2E700380140F5
:101278000008014010B504460E4B18784FF47A73F5
:10128800B3FBF0F30C4A1068B0FBF3F000F096F8EB
:1012980068B90F2C01D901200AE0002221464FF03D
:1012A800FF3000F057F8054B1C60002000E00120DB
:1012B80010BD00BF0400002000000020080000202E
:1012C80008B5074A136843F010031360032000F0C1
:1012D8002FF80020FFF7CEFFFFF718FF002008BD0A
:1012E80000200240034A1168034B1B780B4413602B
:1012F800704700BF1C0A002004000020014B18683A
:10130800704700BF1C0A002038B50446FFF7F6FFF7
:101318000546B4F1FF3F02D0044B1B781C44FFF78D
:10132800EDFF401BA042FAD338BD00BF04000020E7
:10133800074AD36823F4E0631B041B0C000200F483
:10134800E060034343F0BF6343F40033D360704766
:1013580000ED00E030B4174BDB68C3F30223C3F1A0
:101368000704042C28BF04241D1D062D18D9033B8F
:101378004FF0FF3505FA04F421EA0401994005FA13
:1013880003F322EA0303194300280BDB0901C9B25E
:1013980000F1604000F5614080F8001330BC7047F0
:1013A8000023E5E700F00F000901C9B2024B195408
:1013B800F4E700BF00ED00E014ED00E00138B0F103
:1013C800807F0AD2064B5860064AF02182F8231023
:1013D8000020986007221A6070470120704700BFFC
:1013E80010E000E000ED00E0F0B482B000252C46EB
:1013F800ABE0854FBB4210D007D9844FBB420CD01D
:1014080007F58037BB4208D013E0A7F58017BB4229
:1014180003D007F57027BB4207D18B68002B60D03B
:10142800012B59D04261082503E0A7F58017BB427C
:10143800F3D0FF2E57D88446FF2E57D8A200DCF8E9
:1014480000300F27974023EA070305FA02F21343F7
:10145800CCF800304B6813F0805F75D06C4B9A69FC
:1014680042F001029A619B6903F001030193019B19
:10147800A208971C674B53F827C004F003039F008A
:101488000F23BB402CEA030C634B984234D003F57E
:101498008063984200F0948003F58063984200F0DE
:1014A800918003F58063984200F08E8003F5806395
:1014B800984200F08B8003F5806398421AD0062387
:1014C8001BE0CD68B5E7CD680435B2E7CD680835CF
:1014D800AFE7CD680C35ACE702610825A9E7002520
:1014E800A7E70425A5E700F1040CA5E7A4F1080285
:1014F8009200A4E7052300E00023BB4043EA0C0365
:101508000232444F47F822304B6813F4803F5FD0D3
:10151800424A1368334313604B6813F4003F5DD0AD
:101528003E4A5368334353604B6813F4801F5BD0C3
:101538003A4A9368334393604B6813F4001F59D0B9
:10154800364AD3681E43D66001340B6833FA04F276
:1015580056D00122A24003EA020632EA0303F3D17D
:101568004B68122B3FF645AF122B3FF662AF01A72F
:1015780057F823F023140008CB140008D5140008EA
:10158800E71400083B1400083B1400083B1400084B
:101598003B1400083B1400083B1400083B140008E7
:1015A8003B1400083B1400083B1400083B140008D7
:1015B8003B1400083B140008CF140008DB14000893
:1015C80001239AE7022398E7032396E7042394E785
:1015D800124A136823EA060313609DE70F4A53680B
:1015E80023EA060353609FE70C4A936823EA06033D
:1015F8009360A1E7094AD36823EA0606D660A3E701
:1016080002B0F0BC704700BF00002210000031108B
:1016180000100240000001400008014000040140A1
:101628000AB101617047090401617047C36801EAA2
:10163800030221EA030141EA024101617047000007
:1016480082B0084B1B68084AA2FB03235B0A00FB15
:1016580003F3019300BF019B5A1E0192002BF9D19D
:1016680002B0704700000020D34D6210002800F03F
:10167800F18170B582B00446036813F0010F2CD0D5
:10168800AA4B5B6803F00C03042B1DD0A74B5B68C7
:1016980003F00C03082B12D06368B3F5803F41D0E8
:1016A800002B55D103F1804303F504331A6822F463
:1016B80080321A601A6822F480221A6037E09B4B45
:1016C8005B6813F4803FE7D0984B1B6813F4003F26
:1016D80003D06368002B00F0BF81236813F0020F6A
:1016E80075D0924B5B6813F00C0F5FD08F4B5B6823
:1016F80003F00C03082B54D02369002B00F08980D9
:101708008B4B01221A60FFF7F9FD0546874B1B68D2
:1017180013F0020F74D1FFF7F1FD401B0228F5D931
:1017280003209EE1814A136843F4803313606368A1
:1017380043B3FFF7E3FD05467C4B1B6813F4003FFA
:10174800CBD1FFF7DBFD401B6428F5D9032088E1E6
:10175800B3F5A02F09D0754B1A6822F480321A60AD
:101768001A6822F480221A60E1E703F18043A3F5A6
:101778003C331A6842F480221A601A6842F48032B4
:101788001A60D4E7FFF7BAFD0546684B1B6813F4E7
:10179800003FA2D0FFF7B2FD401B6428F5D9032013
:1017A8005FE1624B5B6813F4803FA5D15F4B1B6818
:1017B80013F0020F03D02369012B40F04F815B4ADD
:1017C800136823F0F803616943EAC10313602368CF
:1017D80013F0080F32D0A369002B45D0554B0122D6
:1017E8001A60FFF78BFD0546504B5B6A13F0020F3A
:1017F80021D1FFF783FD401B0228F5D9032030E1F2
:101808004A4A136823F0F803616943EAC103136085
:10181800DDE7474B00221A60FFF770FD0546434B92
:101828001B6813F0020FD2D0FFF768FD401B022897
:10183800F5D9032015E10120FFF702FF236813F013
:10184800040F00F09780394BDB6913F0805F1DD1DE
:10185800364BDA6942F08052DA61DB6903F0805373
:101868000193019B012512E0324B00221A60FFF719
:1018780045FD05462D4B5B6A13F0020FDED0FFF7DE
:101888003DFD401B0228F5D90320EAE000252A4B3C
:101898001B6813F4807F11D0E368012B22D0002B42
:1018A80038D103F1804303F504331A6A22F00102A8
:1018B8001A621A6A22F004021A6218E01E4A1368B1
:1018C80043F480731360FFF719FD06461A4B1B6833
:1018D80013F4807FE0D1FFF711FD801B6428F5D950
:1018E8000320BEE0114A136A43F001031362E36860
:1018F80073B3FFF703FD06460C4B1B6A13F0020F88
:1019080037D1FFF7FBFC801B41F288339842F3D9AB
:101918000320A6E0052B11D0044B1A6A22F001021D
:101928001A621A6A22F004021A62E0E70010024002
:101938000000424280044242007000404D4B1A6A47
:1019480042F004021A621A6A42F001021A62CEE7F1
:10195800FFF7D4FC0646474B1B6A13F0020F08D06A
:10196800FFF7CCFC801B41F288339842F3D903205F
:1019780077E0E5B9E369002B72D03E4A526802F07D
:101988000C02082A56D0022B17D03B4B00221A60B3
:10199800FFF7B4FC0446374B1B6813F0007F47D0B1
:1019A800FFF7ACFC001B0228F5D9032059E0314AA7
:1019B800D36923F08053D361DCE72F4B00221A60F0
:1019C800FFF79CFC05462B4B1B6813F0007F06D0E5
:1019D800FFF794FC401B0228F5D9032041E0236A55
:1019E800B3F5803F1AD023494B6823F47413226A55
:1019F800606A024313434B601F4B01221A60FFF7D2
:101A08007DFC04461B4B1B6813F0007F0ED1FFF7CB
:101A180075FC001B0228F5D9032022E0154A5368FB
:101A280023F40033A1680B435360DCE7002018E07F
:101A3800002016E0012B16D00E4B5B6803F48031B2
:101A4800226A914211D103F47013626A93420ED153
:101A5800002006E001207047012002E0012000E09C
:101A6800002002B070BD0120FBE70120F9E701204A
:101A7800F7E700BF001002406000424286B0164BF4
:101A88000FCB0DF1180C0CE90F0040F20123ADF853
:101A98000430124B5B6803F00C02082A02D010488D
:101AA80006B07047C3F38342624412F8102C13F453
:101AB800803F0CD0094B5B68C3F34043634413F881
:101AC800143C074800FB02F0B0FBF3F0E8E70548D8
:101AD80000FB02F0E4E700BFC081000800100240EC
:101AE80000127A0000093D00002800F0A08070B5BF
:101AF8000D460446524B1B6803F007038B420BD27A
:101B08004F4A136823F007030B431360136803F06D
:101B180007038B4240F08D80236813F0020F17D023
:101B280013F0040F04D0474A536843F4E06353604A
:101B3800236813F0080F04D0424A536843F46053F3
:101B48005360404A536823F0F003A1680B43536085
:101B5800236813F0010F31D06368012B20D0022BCA
:101B680025D0384A126812F0020F64D035494A6805
:101B780022F0030213434B60FFF7C0FB0646314BCC
:101B88005B6803F00C036268B3EB820F16D0FFF7B3
:101B9800B5FB801B41F288339842F0D9032045E019
:101BA800284A126812F4003FE0D101203EE0254A9D
:101BB800126812F0007FD9D1012037E0204B1B6852
:101BC80003F00703AB420AD91D4A136823F0070341
:101BD8002B431360136803F00703AB422DD123682E
:101BE80013F0040F06D0174A536823F4E063E16842
:101BF8000B435360236813F0080F07D0114A53684A
:101C080023F46053216943EAC1035360FFF736FFA9
:101C18000C4B5B68C3F303130B4AD35CD8400B4BE4
:101C280018600B4B1868FFF725FB002070BD0120DA
:101C380070470120FAE70120F8E70120F6E700BF26
:101C48000020024000100240A88100080000002087
:101C580008000020014B1868704700BF00000020F2
:101C680008B5FFF7F7FF044B5B68C3F30223034A89
:101C7800D35CD84008BD00BF00100240B8810008FE
:101C880008B5FFF7E7FF044B5B68C3F3C223034AB9
:101C9800D35CD84008BD00BF00100240B8810008DE
:101CA80010B504460268136923F44053C1680B4316
:101CB800136183680269134342691A430168CB6858
:101CC80023F4B05323F00C031343CB600268536929
:101CD80023F4407381690B4353610268124B9A42A3
:101CE8001FD0FFF7BDFF00EB800303EB830362689F
:101CF8009200B3FBF2F20D48A0FB023149096423BC
:101D080003FB11231B013233A0FB03235B0903F000
:101D1800F00202EB011203F00F03216813448B60F9
:101D280010BDFFF7ADFFDEE7003801401F85EB511E
:101D38002DE9F84305460F4616469946DDF82080FA
:101D48002C68246837EA04030CBF01240024B44239
:101D58001FD1B8F1FF3FF3D0B8F1000F05D0FFF75E
:101D6800CDFAA0EB09004045EAD92A68D36823F4E4
:101D7800D073D3602A68536923F001035361202389
:101D880085F8393085F83A30002385F83830032053
:101D980000E00020BDE8F88358B310B5044690F879
:101DA80039300BB3242384F839302268D36823F4FC
:101DB8000053D3602046FFF773FF2268136923F4AA
:101DC800904313612268536923F02A035361226800
:101DD800D36843F40053D3600020E063202384F8E1
:101DE800393084F83A3010BD80F83830FFF706FAF9
:101DF800D8E7012070472DE9F04182B01E4690F8DF
:101E08003930DBB2202B54D104460D4690460029C8
:101E180053D0002A53D090F83830012B51D00123E9
:101E280080F838300023C363212380F83930FFF766
:101E380065FA0746A4F82480A4F82680A368B3F5B9
:101E4800805F05D04FF00008002384F8383012E096
:101E5800236913B14FF00008F6E7A8460025F3E719
:101E680038F8023B2268C3F308035360E28C92B24D
:101E7800013A92B2E284E38C9BB273B100963B467E
:101E8800002280212046FFF753FFE0B9002DE7D05C
:101E980015F8012B23685A60E8E700963B460022B4
:101EA80040212046FFF744FF78B9202384F83930D1
:101EB80000E0022002B0BDE8F0810120FAE701202D
:101EC800F8E70220F6E70320F4E70320F2E72DE91C
:101ED800F04182B01E4690F83A30DBB2202B5BD13D
:101EE80004460D46904600295AD0002A5AD090F848
:101EF8003830012B58D0012380F838300023C363D1
:101F0800222380F83A30FFF7F9F90746A4F82C8025
:101F1800A4F82E80A368B3F5805F05D04FF00008C1
:101F2800002384F8383017E0236913B14FF0000814
:101F3800F6E7A8460025F3E723685B68C3F30803C0
:101F480028F8023B03E023685B682B700135E28DBB
:101F580092B2013A92B2E285E38D9BB2BBB1009690
:101F68003B46002220212046FFF7E2FEF0B9002D73
:101F7800E2D0A368B3F5805FE5D013B92369002BDD
:101F8800E1D023685B6803F07F032B70DEE7202332
:101F980084F83A30002000E0022002B0BDE8F08169
:101FA8000120FAE70120F8E70220F6E70320F4E72A
:101FB800002103E00B4B5B58435004310A480B4B9C
:101FC80042189A42F6D30A4A02E0002342F8043B38
:101FD800084B9A42F9D3FFF7F5F800F015F8FFF728
:101FE80073F87047E485000800000020B809002055
:101FF800B80900207C0A0020FEE70000014B1868A1
:10200800704700BF0C00002070B50D4E0D4D761BBB
:10201800B61006D0002455F8043B01349847A64270
:10202800F9D1094E094D06F0A7F8761BB61006D06F
:10203800002455F8043B01349847A642F9D170BDF5
:10204800D8850008D8850008E0850008D8850008EC
:10205800F0B4860746D0541E002A3CD00346CAB2C4
:1020680001E0013C37D303F8012B9D07F9D1032C7C
:102078002AD9CDB245EA05250F2C45EA054534D9BC
:10208800A4F1100222F00F0C03F12007160967448F
:1020980003F1100242E9045542E902551032BA42EE
:1020A800F8D1721C14F00C0F03EB021204F00F06A7
:1020B80013D0331F23F003030433134442F8045BA3
:1020C8009342FBD106F003042CB1CAB21C4403F8B6
:1020D800012B9C42FBD1F0BC704734461346002CC0
:1020E800F3D1F8E714460346C1E71A462646E0E767
:1020F8000FB400B5074983B004AB086853F8042B44
:102108008168019300F0D8F803B05DF804EB04B0DF
:10211800704700BF0C0000202DE9F043654D0446D0
:10212800D5F800900F4690461E4683B0B9F1000FCF
:1021380003D0D9F83830002B79D0B8F1020F06D087
:10214800B8F1010F00F2A380002EC0F2A080636EE8
:10215800D90752D52146484603F002F8216B41B110
:1021680004F14003994202D0484603F0F5F80023F1
:1021780023630023B4F90C50A36163602B0665D474
:1021880025F44A6525F00305B8F1020FA58164D04E
:1021980001AB6A462146484603F014FAA38918435E
:1021A800A081002E30D0002F2FD0D9F83830002B46
:1021B80039D0009BC4E90476B342B4F90C302760E7
:1021C8001CBF43F40063A381B8F1010F04BF43F0BF
:1021D8000103A3819AB213F008032CD0D10754D578
:1021E80000217642A661666EA16016F0010627D02E
:1021F8000026304603B0BDE8F083A3899A05A9D428
:10220800A06D03F0DBF9A5E7009E304603F052FA13
:10221800074600283ED0A38943F08003A381D9F85C
:102228003830002BC5D1484602F0F6FFC1E74846D2
:1022380002F0F2FF81E7A360666E16F00106D7D1BF
:1022480093051BD5304603B0BDE8F08348462169A5
:1022580003F082F8B4F90C5092E70026002301211C
:10226800626E45F00205A360D70704F14303A58118
:10227800616123602361E5D4A805E3D4A06D03F070
:102288009FF9304603B0BDE8F083A660D4E74FF06D
:10229800FF36D7E7009DB54204D0284603F00AFA76
:1022A800074620B94FF0FF36B4F90C50D6E72E4652
:1022B800B1E700BF0C0000202DE9F04FD7B01C4655
:1022C8008B461746814603F071F903680E94184649
:1022D800189304F0FDF81790B9F1000F04D0D9F85D
:1022E8003830002B00F0EA81DBF8643013F0010F7E
:1022F800BBF90C309AB202D19D0540F1B586900425
:102308000AD4DBF8642043F4005322F40051ABF8FC
:102318000C309AB2CBF86410110740F1BB80DBF89F
:102328001030002B00F0B68002F01A030A2B00F0E0
:10233800BF80002300210022CDE92B33CDE91A33D9
:10234800CDE91C33139319930A932DAB98462A931E
:102358003B78DA46CDE91412002B00F060813C4648
:1023680004E014F8013F002B00F0B980252BF8D1C8
:10237800E51B40F0B7802378002B00F05081002344
:102388000B938DF88B3007934FF0FF33667804F189
:10239800010B20212B2409930BF1010BA6F120033B
:1023A8005A2B00F2BB80DFE813F0EA02B900B9004B
:1023B800E302B900B900B900BF02B900B9006A0068
:1023C8005202B90033025E02B90057025B005B009B
:1023D8005B005B005B005B005B005B005B00B900BF
:1023E800B900B900B900B900B900B9004201B90093
:1023F800C1019401420142014201B900B900B9008A
:10240800B900AF02B900B900FB01B900B900B900C1
:10241800D501B9007802B900B900B707B900B90009
:10242800B900B900B900B900B900B9004201B90052
:10243800C1019801420142014201A50298018D01A2
:10244800B9009B02B9003A02FF0189028D01B90067
:10245800D50172009207B900B9009607B900720059
:102468000022A6F130031BF8016B02EB820203EB9A
:102478004202A6F13003092BF5D90B928EE70E9B89
:1024880053F8042B002A0B920E93C0F2BE819BF8DE
:10249800006081E75946484601F05EFD002841F09A
:1024A8009B83BBF80C2002F01A030A2B7FF441AF80
:1024B800BBF90E30002BFFF63CAFDBF86430DE07CB
:1024C80002D4950541F1808123463A46594648464B
:1024D80001F0FEFC0A900A9857B0BDE8F08FE51BA2
:1024E80000F09D80DDE92B3201332A44072BC8E92F
:1024F8000075CDE92B3206DC08F108080A9A237822
:102508002A440A9238E7514648462AAA04F07EF837
:10251800002841F00E840DF1B408EFE7002E7ED0BC
:10252800002301211A4608918DF8F4608DF88B304C
:102538000D9309931293169310930C913DAF079B3B
:1025480013F0020302D0089902310891079911F09B
:1025580084010F9105D10B9908980D1A002D00F3ED
:102568009C832C9C72B101202B9A044402440DF1E7
:102578008B01072ACDE92B24C8E9001000F30B844E
:1025880008F108086BB102212B9B0C44013323AAE4
:10259800072BCDE92B34C8E9002100F30B8408F19F
:1025A80008080F9B802B00F07882099B0C9A9D1AD3
:1025B800002D00F3B282079BDD0500F119822B9BE9
:1025C8000C9A01331444072BC8E900722C942B93FE
:1025D80000F3D58308F10808079B5D0705D50B9B19
:1025E800089A9D1A002D00F3F283DDE90A32089952
:1025F8008A42ACBF9B185B180A93002C40F0C1823A
:1026080000232B930D9B1BB148460D9902F0A4FEA5
:102618005F460DF1B4083B78002B7FF4A0AE2C9BED
:10262800D346002B40F0FB8700232B93B7E20E9B89
:10263800073323F007031946F1E80223CDE91423F1
:10264800DDE9143424F000441D4618460E914FF07D
:10265800FF322146B04BFEF7AFFA002840F06F85F5
:10266800284621464FF0FF32AB4BFEF787FA002889
:1026780040F06585DDE9140100220023FEF774FAB5
:10268800002841F0E9809DF88B2003200021A34F0A
:10269800A34B08900D91472EC8BF1F46079C0C906E
:1026A80024F0800407940991129116911091002A40
:1026B8003FF445AF089B0133089340E7484602F0D2
:1026C800ABFD11E6079B9BF8006043F020030793DE
:1026D80062E6079B43F010030793079B9C0640F1B3
:1026E8008E840E9B073323F007031946F1E8022373
:1026F80014461D460E91002A73F10003C0F2F884B7
:10270800099B0133079B00F0098323F0800354EAF7
:102718000502089340F00383099A002A40F00483D5
:102728000793002356AF09930C9353E1002101242A
:102738000E9B0A4653F8040B0894CDE90D138DF847
:102748008B108DF8F40009911291169110910C9448
:102758003DAFF4E600250E9C8DF88B5054F8047BB1
:10276800002F00F02386099A1346013300F01687DC
:102778002946384603F054FA0D90002801F0A68146
:102788002B460D9A0995D21B0C9222EAE272089206
:102798000E949DF88B200D9312931693109386E751
:1027A800079B43F010030793079B9A0640F1488460
:1027B8000E9B073323F00703F3E802450E93079BAC
:1027C80023F480630893002300228DF88B20099A54
:1027D8001146013100F0DF80089921F0800107914E
:1027E80054EA050140F0D580002A40F03882002BD9
:1027F80097D1089B13F001030C9300F065843023F4
:102808000DF257178DF85731E4E00B9B5B420B93A1
:10281800079B9BF8006043F004030793BCE5079B04
:102828009D0600F17084079BDC0600F17B86079B00
:10283800580600F10687079B990540F173860E9BA1
:102848000A9953F8042B5F4611700E93E3E69BF840
:1028580000608DF88B409FE5079B9BF8006043F074
:102868008003079398E55A4612F8016B2A2E01F067
:102878000783A6F13003092B934698BF002201F283
:102888006F811BF8016B02EB820203EB4202A6F197
:102898003003092BF5D9099280E5079B43F0100313
:1028A8000893089B9D0640F1BB830E9B073323F0DA
:1028B8000703F3E802450E93012385E747F6300244
:1028C8000E9B079953F8044B41F002010E93154BE8
:1028D80000251993782602230891ADF88C2073E718
:1028E8009BF80060079B6C2E00F0418543F01003B5
:1028F800079351E59BF80060079B682E00F04D8513
:1029080043F04003079347E5079B9BF8006043F0BB
:102918000803079340E500BFFFFFEF7FD881000859
:10292800DC810008E8810008484602F03FFE436861
:1029380018461C9303F0CCFD034648461D461D93DC
:1029480002F034FE826820211A92002D3FF49FADD8
:102958001A9B002B3FF49BAD1A9B1B78002B3FF46E
:1029680096AD079B9BF8006043F48063079313E5DB
:10297800079B9BF8006043F0010307930CE59DF863
:102988008B30002B7FF483AD9BF800608DF88B10A3
:1029980002E5079A0892012B00F0C181022B00F092
:1029A800668156AFE20842EA4572E90804F0070377
:1029B8000D461446303354EA05013A4607F8013DFE
:1029C800F0D108990846C00700F1D38256ABDB1B4B
:1029D80007910C93002309990D9312931693109362
:1029E8000C9B9DF88B208B42B8BF0B4608935EE684
:1029F800652E40F3E580DDE9140100220023FEF78F
:102A0800A9F8002800F01B8201212B9BCB4A0B441C
:102A18000C44072BCDE92B34C8E9002100F3678566
:102A280008F10808249B139A934280F218832B9B81
:102A3800179A013318991444072BC8E900122C94EB
:102A48002B9300F39D8408F10808139B5D1E002D4D
:102A58007FF7C2AD102D40F35785B94F10262B9B39
:102A68000F9705E008F10808103D102D40F34F8539
:102A780001331034072BCDE92B34C8E90076F1DD9A
:102A8800514648462AAA03F0C1FD002840F081803B
:102A9800DDE92B340DF1B408E6E70B9B089A9D1A83
:102AA800002D7FF782AD102D41F3A780A448214661
:102AB800102304462B9A0F9004E0103D102D08F1C6
:102AC800080817DD01321031072ACDE92B21C8E9A2
:102AD8000043F2DD514648462AAA03F097FD002834
:102AE80057D1DDE92B21103D102D4FF010030DF1CA
:102AF800B408E7DC0C4601320F9B2C44072ACDE9C9
:102B08002B24C8E9003500F30A84099B0C9A08F1C4
:102B180008089D1A002D7FF74EAD102D40F37A85D9
:102B280087482146102304462B9A0F9004E0103D55
:102B3800102D08F1080816DD01321031072ACDE9F9
:102B48002B21C8E90043F2DD514648462AAA03F082
:102B58005DFDF0B9DDE92B21103D102D4FF010037C
:102B68000DF1B408E8DC0C4601320F9B2C44072A0F
:102B7800CDE92B24C8E9003500F3348208F10808B0
:102B880019E5514648462AAA03F040FD00283FF4BB
:102B980037ADD3460D9911B1484602F0DDFBDBF89D
:102BA800643013F0010FBBF80C3002D1980540F1E6
:102BB8007784590601F11C800A9857B0BDE8F08F58
:102BC800139B012B40F3B78101232B9D1C441D440B
:102BD800072D2C94C8F800702B95C8F8043000F322
:102BE800FF8308F10808179B0135189A1C44072D24
:102BF800CDE92B54C8E9002300F3008408F1080844
:102C08000023DDE914010022FDF7A4FF139B00282F
:102C180040F0BD81013B013501371C44072DCDE94A
:102C28002B54C8F80070C8F8043000F3938308F1F7
:102C380008081B9A0135144426AB072DCDE92B54FF
:102C4800C8E900327FF7C6AC514648462AAA03F0C5
:102C5800DDFC00289DD12C9C0DF1B408BCE4012BAF
:102C680000F0D087022B079B08937FF49AAE19983F
:102C780056AF230943EA0573290904F00F020D46EC
:102C88001C46835C07F8013D54EA0503F1D1089B13
:102C9800079356ABDB1B0C939CE6102D40F338874B
:102CA800DDE92B211E930B4639461024374656463C
:102CB800CA46894604E0103D102D08F1080817DDC2
:102CC800013220491033072ACDE92B23C8E9001423
:102CD800F1DD314650462AAA03F098FC002840F05E
:102CE800F883DDE92B23103D102D0DF1B408E7DC46
:102CF8004846D146B2463E46074619461E9B6C18C2
:102D080001321049072ACDE92B24C8E9001500F340
:102D1800CF839DF88B2008F1080823E40893002D41
:102D280008BF0A2C80F07883089B3034079301236E
:102D38008DF857410C930DF257174BE6188200088F
:102D48002C8200081C8200082B9B179901331898C5
:102D58000C44072BC8E900012C942B9300F325851C
:102D680008F10808002AC0F2FF86139A01331444B8
:102D7800072BCDE92B34C8E900727FF72BAC5146FD
:102D880048462AAA03F042FC00287FF402AF2C9C94
:102D98000DF1B40820E4514648462AAA1E9303F0D0
:102DA80035FC00287FF4F5AE2C9C1E9B0DF1B40871
:102DB800FFF7E8BB514648462AAA03F027FC00283B
:102DC8007FF4E7AE2C9C0DF1B408FFF7EABB102D99
:102DD80040F3FF8610262B9B04E0103D102D08F1D0
:102DE800080817DD0133B94A1034072BCDE92B3415
:102DF800C8E90026F1DD514648462AAA03F006FC38
:102E080000287FF4C6AEDDE92B34103D102D0DF1FE
:102E1800B408E7DC0133AD4A2C44072BCDE92B3449
:102E2800C8E900257FF7E1AB514648462AAA03F0D6
:102E3800EDFB00287FF4ADAE2C9CFFF7D6BB249A9F
:102E4800002A40F31A81109B139A9342A8BF134695
:102E5800002B1D460BDD2B9B2C440133072BC8E9A7
:102E680000752C942B9300F3DB8508F10808109B60
:102E7800002DA8BF5B1B002B1D4600F36783109B2A
:102E88003B441E46079B590500F10185249B139A74
:102E9800934203DB079AD20740F1CB832B9A179909
:102EA800013218980C44072AC8E900012C942B9287
:102EB80000F3C38508F10808139ABD18AD1BD31A8F
:102EC8009D42A8BF1D46002D0BDD2B9A2C440132D4
:102ED800072AC8E900652C942B9200F31D8608F197
:102EE8000808002DB4BF1D465D1B002D7FF774AB8D
:102EF800102D40F30983764F10262B9B0F9705E082
:102F080008F10808103D102D40F3018301331034F7
:102F1800072BCDE92B34C8E90076F1DD5146484648
:102F28002AAA03F073FB00287FF433AEDDE92B34C3
:102F38000DF1B408E6E7079BDE073FF545AE012330
:102F48002B9D1C441D44072D2C94C8F800702B950C
:102F5800C8F804307FF76BAE514648462AAA03F0FA
:102F680055FB00287FF415AEDDE92B540DF1B408AC
:102F78005FE6302B3FF48BAE3023023A07F8013C72
:102F8800089956AB9B1A174607910C9322E55E1ECB
:102F9800002E7FF74EAE102E40F34F874C4BCDF8E6
:102FA80024B01027D3460F93CA46994605E008F186
:102FB8000808103E102E40F3BF8101351034072D4C
:102FC800CDE92B54C8E90097F1DD594650462AAAA5
:102FD80003F01CFB002840F0EC85DDE92B540DF1D3
:102FE800B408E6E7514648462AAA03F00FFB002832
:102FF8007FF4CFAD2C9C0DF1B408FFF7DCBA079B2A
:10300800D80669D4079B590640F1F6820E9B53F8FF
:10301800044B24B2E5170E9322462B46FFF76BBBF1
:10302800089BDC067CD4089B580640F1CA820E9A9D
:10303800012352F8044B00250E92A4B2FFF7C4BB3B
:10304800079BDB0674D4079B5F0640F1C9820E9B81
:10305800002553F8044B0E93A4B2FFF7B0BB079BAF
:10306800D8077FF5B9AAE2E4DBF8580002F0A6FA1F
:10307800BBF90C309AB2FFF742B901202B9B1549D6
:1030880003440444072BCDE92B34C8E9001000F3AE
:10309800AC8408F10808002A7FF456AE079B139AFF
:1030A80003F0010313433FF497AA2B9B179A0133AC
:1030B80018991444072BC8E900122C942B9300F399
:1030C800748308F1080850E656AF83E41C820008B0
:1030D8002C820008188200080E9B53F8044B2246E5
:1030E800E5170E932B46002A73F10003BFF608ABD1
:1030F8002D23079A64428DF88B3065EB4505012333
:103108000892FFF764BB0E9B5F4653F8041B0E93AF
:103118000A9BDD171A462B46C1E90023FFF77BBA45
:103128000E9A012352F8044B00250E92FFF74CBB70
:103138000E9B002553F8044B0E93FFF740BBDDE9C7
:1031480014010B460246FDF737FD0146002840F002
:10315800DD85612E00F08285412E00F07B82099B7F
:1031680026F020055A1C089500F0CC85472D00F064
:10317800A385DDE91401079B43F4807312930B4682
:10318800002BC0F2398600220F931E920D920C90EC
:10319800462D0C9A00F07A84452D4FF002000F9BC3
:1031A80040F05984099900904C1C28A925A804913D
:1031B80024A9CDE902100194484600F0D5FF07463E
:1031C8000444129B079D0793002200230C980F9933
:1031D800FDF7C0FC002800F02B832346DB1B13936C
:1031E800089B472B00F0F682089B462B00F07A8458
:1031F800249B1093109B089A013B412A249300F0CA
:10320800F5850021F2B2002B8DF89820B6BF2D224B
:103218002B22109B8DF89920B8BFC3F10103092B0D
:1032280040F3D5850DF1A70E72469C46C24C604608
:10323800114684FB0C234FEAEC72C2EBA30202EBAB
:103248008203ACEB430330336328944601F8013C16
:1032580001F1FF32EBDC63463033D8B28B1E9E455A
:1032680002F8010C40F228860DF19A0301E012F8E9
:10327800010B964503F8010BF9D10DF1A9030DF1E6
:103288009A025B1A134426AA9B1A1B93139B1B9A38
:10329800012B1A440C9240F3B2850C9B179A1344E5
:1032A8000C9300231293169310930C9B25F48065BE
:1032B80045F4807223EAE373079208931E9B002B60
:1032C80040F0AF829DF88B200993FFF7F0B9079B78
:1032D8000893FFF7E6BA994B1993079B990675D59A
:1032E8000E9B073323F00703F3E802450E93079A72
:1032F800D7070AD554EA050307D0302342F0020263
:103308008DF88D6007928DF88C30079A022322F48D
:1033180080620892FFF758BA894B1993DDE7514646
:1033280048462AAA03F072F900287FF432AC2C9C94
:103338000DF1B408FFF739B9D146DA46DDF824B003
:1033480001350F9B3444072DCDE92B54C8E90036CD
:103358007FF76DAC514648462AAA03F057F9002872
:103368007FF417ACDDE92B540DF1B40861E443F0A8
:1033780020039BF8016007930BF1010BFFF70CB8D2
:10338800514648462AAA03F041F900287FF401ACC7
:103398002C9C0DF1B408FFF758BB43F400739BF85D
:1033A800016007930BF1010BFEF7F6BF099B3A4644
:1033B800062B28BF062309971297169710970D9783
:1033C8000893604F0E940C93FFF771B9079BDA06C8
:1033D80040F183800E9B002553F8044B0E9386E73B
:1033E800514648462AAA03F011F900287FF4D1ABC8
:1033F800DDE92B540DF1B408FFF7F5BB51464846FB
:103408002AAA03F003F900287FF4C3ABDDE92B54A3
:103418000DF1B408FFF7F4BB0022089BCDF81CB0EF
:1034280003F480630C96CDF834A09346CA461E4632
:10343800C14656AFDDF868800BE00A22002320461B
:103448002946FDF7F7FB002D08BF0A2C1BD30446BD
:103458000D460A22002320462946FDF7EBFB3032B1
:1034680007F8012C0BF1010B013F002EE5D098F86D
:1034780000309B45E1D1BBF1FF0FDED0002D08BF26
:103488000A2C80F0EF81CDF86880CDF84CB0C846A2
:103498000C9ED146DDF81CB0DDF834A0FFF7F7BB71
:1034A800DBF8580002F08CF8BBF80C30FFF781BB52
:1034B800514648462AAA1E9303F0A8F800287FF42C
:1034C80068AB9DF88B202C9C1E9B0DF1B408FFF770
:1034D80049B8D146B346FFF75DBB079B5B0665D588
:1034E8000E9B002553F8044B0E93A4B2FFE65146F9
:1034F80048462AAA03F08AF800287FF44AAB2C9C95
:103508000DF1B408FFF78EBA0F4A2B9B0F920133C7
:103518000F9A2C44072BCDE92B34C8E900257FF7F7
:1035280059A82CE40E9B0A9953F8042B5F461160A6
:103538000E93FFF770B800BF67666666E8810008FB
:10354800FC810008108200082C820008102B40F330
:1035580093845146BC4ACA4609971026174689469D
:103568002B9B0F9205E008F10808103D102D40F341
:103578002A8201331034072BCDE92B34C8E90076B1
:10358800F1DD494650462AAA03F040F8002840F0E9
:103598001383DDE92B340DF1B408E6E7384602F071
:1035A80097FF2B4602460995FFF7EEB8079B0025C3
:1035B80013F4007F0E9B53F8044B0E9318BFE4B22C
:1035C80095E60E9A089B52F8044B13F4007F4FF0CF
:1035D80000054FF001030E9218BFE4B2FFF7F4B8EC
:1035E800079B002513F4007F0E9B53F8044B0E93A2
:1035F80018BFE4B2FFF7E3B8079B13F4007F0E9BF4
:1036080053F8044B18BF64B2E5170E9322462B46B5
:10361800FFF771B88C4B2B9A0F93FFF7A5BA484662
:1036280051462AAA02F0F2FF00283EF4FDAFFFF748
:10363800B6BA139ABD18AD1BD31A9D42A8BF1D4632
:103648004FE40E9B0A9953F8042B5F4611800E93A2
:10365800FEF7E1BF30238DF88C3058238DF88D307C
:10366800079B43F00204099B632B00F3ED820023C0
:103678003DAF0D93079BDDE9141243F48173129358
:103688001346002B26F020050794C0F255820F93AD
:10369800002308950C911E93612E00F07B83412E28
:1036A8007FF476AD24AA0C980F9902F081FE0022CF
:1036B8004FF07F53FCF7E6FF04460D460022002337
:1036C800CDE91045FDF746FA08B1012324935F4B75
:1036D8000C93099BCDF83CB0013B1396CDF87C9038
:1036E800CDF880A02197BA46DDE910679946DDF844
:1036F80030B0CDF8588006E000220023FDF72AFA02
:1037080009F1FF39E8B90022514B30463946FCF738
:10371800B9FF0D460446FDF765FA8046FCF748FFF9
:103728000B46024629462046FCF7F4FD1BF80830F4
:10373800B9F1FF3F554606460F464C460AF8013B8D
:10374800DAD1304639460022424BDDF83CB0139EB0
:10375800CDF83CA0CDF84C80CDE91001DDE91F9AE9
:10376800DDF85880219FFDF71DFA002840F05082AF
:10377800DDE910010022374BFDF7ECF918B1139B76
:10378800DB0700F14582002C08DB30220F99631C0F
:103798000B4401F8012B8B42FBD10F910F9B079D26
:1037A800DB1B1393129B07931AE5514648462AAA36
:1037B80002F02CFF00287FF4ECA9DDE92B34249AD1
:1037C8000DF1B408FFF7CEBADBF8580001F0F8FEA7
:1037D800FEF77ABE249BD81C109302DB099A934209
:1037E80004DD023E26F02003089303E5109B13999D
:1037F8008B42C0F2AB81EA0740F1E482179A134486
:103808000C936E0540F1E182109B002B00F394822B
:1038180067260C9B23EAE3730893002312931693FD
:103828004CE52D2200238DF88B200993FEF742BF2B
:10383800289BA342BFF4D2AC30215A1C289219709D
:10384800289B9C42F9D8C9E42C820008FC81000816
:10385800000030400000E03F2D231A468DF88B30E1
:10386800FEF713BF1D9B1C99FF1A1A46384602F033
:103878005DFE98F801300BB108F101080A22002317
:1038880020462946FDF7D6F94FF0000BDFE5139BDC
:103898004246DDF85880FB180993CDF830B00F97F1
:1038A8002046DDF874B01A9F129BB8F1000F2DD096
:1038B800002B6DD1013F08F1FF382B9B1C99013378
:1038C8005844072BC2E9001B2C902B9364DC083268
:1038D80009993B788D1B9D42A8BF1D46002D0ADD26
:1038E8002B9B28440133072BC2E900652C902B93AE
:1038F8005DDC3B780832002DB4BF1D465D1B002DF2
:1039080015DC1E44129BB8F1000FD1D1002B3FD11A
:10391800139B1A970F9F9046FB189E42324628BF6A
:103928001A4604461646DDF830B0FFF7AFBA102D38
:1039380040F36A822B9910240B4604E0103D102DA9
:1039480002F1080216DD0133B0491030072BCDE92A
:103958002B30C2E90014F1DD514648462AAA02F08C
:1039680055FE00287FF415A9DDE92B30103D102DF8
:103978002DAAE8DC19464B1CA4492844072BCDE99D
:103988002B30C2E900153EDC3B7808321E44B9E70B
:10399800129B013B129390E7514648462AAA02F02F
:1039A80035FE00287FF4F5A82C982DAA90E75146FB
:1039B80048462AAA02F02AFE00287FF4EAA83B78A3
:1039C8002C982DAA97E74A46D1469246099F01337B
:1039D8000F9A2C44072BCDE92B34C8E9002500F3B6
:1039E800428108F10808FFF74ABA514648462AAA10
:1039F80002F00CFE00287FF4CCA8249A2C9C0DF130
:103A0800B408FFF748BB514648462AAA02F0FEFD13
:103A180000287FF4BEA83B782C982DAA1E4471E795
:103A2800514648462AAA02F0F1FD00287FF4B1A8C1
:103A38002C9C0DF1B408FFF71ABA514648462AAA39
:103A480002F0E4FD00287FF4A4A8249B2C9C0DF12F
:103A5800B408FFF731BA099C28A9CDE900040491FC
:103A680025A824A9CDE90210484600F07DFB472D82
:103A780007461AD1079D2B46DB0700F1A180129A51
:103A8800289B079247220892FFF7A8BB0320099CAE
:103A980028A9CDE90004049125A824A9CDE902109C
:103AA8000F9B484600F060FB0746099B462D07EB35
:103AB80003047FF486AB3B78302B00F0B081249B65
:103AC800129A079D1C440792FFF77EBB099B9DF83D
:103AD8008B2008930C9309900E94129016901090D6
:103AE800FEF7E5BD249A002A109240F3AF810999A8
:103AF80005F001030B4340F047816626109B0C93A9
:103B08006A0500F11A810C9B23EAE373089384E6A3
:103B1800DDE92B21FFF7F3B8514648462AAA02F0FF
:103B280075FD00287FF435A8249B139A2C9C0DF171
:103B3800B408D31AFFF7D5B908952D23DDE9141277
:103B48001E9302F100430C910F93A5E5139B179A5E
:103B58009A18109B0C92002B40F358816726CFE7E8
:103B680000230993FEF71ABC5542103280F2A18156
:103B78005146264ACA4609971026174689460F9283
:103B880004E008F10808103D102D79DD01331034E8
:103B9800072BCDE92B34C8E90076F2DD49465046BB
:103BA8002AAA02F033FD38B9DDE92B340DF1B40847
:103BB800E9E7D146FEF7EEBFCB46D146FEF7EABFAE
:103BC800099B079DFC18129B079347230893FFF74F
:103BD800FBBA2B9BFFF71EB9DBF86430DB0707D471
:103BE800BBF80C309F0503D4DBF8580001F0E8FC63
:103BF8004FF0FF330A93FEF7DFBF044B2B9A0F9366
:103C0800FEF779BF079B0893FFF78EB82C82000850
:103C18000F9B0C99289513F8012CC97B8A4240F018
:103C28002981302003F8010C289B5A1E289213F88A
:103C3800012C9142F6D0392A0BBF0C9A0132927AA4
:103C4800D2B203F8012CA9E54846591C01F03AFD07
:103C58000746002800F024810D900BE530238DF8ED
:103C68008C307823FAE4514648462AAA02F0CEFC62
:103C780000287EF48EAF2C9C0DF1B408FFF7FFB836
:103C88004A46D1469246099F01330F9A2C44072B86
:103C9800CDE92B34C8E900257FF713AA51464846D9
:103CA8002AAA02F0B3FC00287EF473AFDDE92B34B6
:103CB8000DF1B408FFF759B8002B08BF0123099389
:103CC800079B43F480731293159B002B0C93C0F24F
:103CD800BB800224099D28A825AA24ABCDE903208E
:103CE800CDE90045DDE91445029322462B464846B6
:103CF8000D9100F039FA0C9B07460F930D9B0C941D
:103D08001E93B7E606230993FFF733BA159B0320E2
:103D1800002BB8BF2D234FF00001BABF1A468DF80B
:103D28008B309DF88B20664F664B08900D91FEF7FF
:103D3800B2BCD346FEF733BF67261A990B78FF2B20
:103D480000F0AA800024109A204603E001300131D7
:103D5800FF2B08D0934206DAD21A4B78002BF5D104
:103D68000B780134F4E71A91109216901294129A73
:103D7800169B0C9913441D9A02FB03130C9323EA18
:103D8800E3730893FFF79ABA179B6626D31819446A
:103D98000C91B5E624AA0C980F9902F009FB0022B1
:103DA8004FF07F53FCF76EFC04460D4600220023BB
:103DB800CDE91045FCF7CEFE08B101232493424B10
:103DC8000C9386E4109B0C931BE567269BE6002961
:103DD80037D130228DF89A200DF19B02303302F84A
:103DE800013B26ABD31A1B93FFF750BA06F10F021B
:103DF8000121D2B2FFF707BA00230D939DE6E90728
:103E08007FF54FAAFFF749BA2B99B4E5C3F101032F
:103E18001A4422EAE27367260C920893FDE4002212
:103E280000230C980F99FCF795FE00287FF447AE05
:103E3800099BC3F10103249342E6244B0F93FFF738
:103E48007FBA0DF19A02C9E70D9076E6099A05F056
:103E5800010513462B4304D10123662608930C93CE
:103E6800DBE4179B662601331A4422EAE2730C92BC
:103E78000893D2E40F9BDEE6144A2B9B0F92A6E52B
:103E88000E9B9BF8016053F8040B934640EAE070E0
:103E980009900E93FEF780BA00231293169366E7F3
:103EA800BAF80C30D34643F04003AAF80C30FEF7BA
:103EB80076BE064A0F92E7E602231B93FFF7E6B9A0
:103EC800E0810008E4810008E88100082C820008ED
:103ED800F0B50C464FF4806C4FF0000E15460646C0
:103EE8001F46636EADF26C4DE28989891993E369C7
:103EF800ADF80E20626A21F00201079316A81AABEA
:103F0800ADF80C10CDF818E0099200930493CDF8A1
:103F180008C0CDF814C001F04DFB2A463B4669465F
:103F28003046FEF7C9F9051E07DB3046694601F041
:103F380017F9002818BF4FF0FF35BDF80C305B06A5
:103F480003D5A38943F04003A381169801F034FBFD
:103F580028460DF26C4DF0BD38B5324B0546186851
:103F68000C4610B1836B002B3CD0B4F90C30180709
:103F78009AB20CD52169A9B112F0010022D000250E
:103F88006069A5604042A06111B3002038BDD10628
:103F98003FD5520729D4216943F00803A3819AB277
:103FA8000029E9D102F42070B0F5007FE4D028465A
:103FB800214601F035FBB4F90C3021699AB212F0B0
:103FC8000100DCD1950758BF6069A0600029DCD1E9
:103FD800120658BF0846D9D543F040034FF0FF30CA
:103FE800A38138BD01F018F9BFE7216B51B104F185
:103FF8004002914204D0284601F0AEF9B4F90C30E1
:10400800002222630022216923F02403C4E900125C
:10401800C2E7092243F040032A604FF0FF30A38132
:1040280038BD00BF0C000020024B13B1024800F05D
:1040380005B87047000000009552000800230146AB
:104048001A46184603F0DCB92DE9F04F03690D69EB
:1040580083B0AB42C0F28480013D01F1140600F147
:10406800140956F8253059F8252001338E46A90041
:1040780000919A4209EB85018246B2FBF3F706EB01
:104088008508019137D30022B446144648465CF8A7
:10409800043B01681FFA83FB07FB0B221B0C4FEA4A
:1040A800124B07FB03BB93B2E31A8AB21FFA8BF4D5
:1040B8001344C4EB114404EB23449BB243EA044386
:1040C800E04540F8043B4FEA24444FEA1B42DED265
:1040D800009B59F8033073B9019B043B994504D3FD
:1040E80007E0994505F1FF3503D253F80429002A62
:1040F800F7D0CAF810507146504602F031F800283F
:104108002ADB48460023013756F8041B04688AB2A4
:104118009A1A0B0CA1B20A44C3EB144303EB2243D3
:1041280092B242EA0342B04540F8042B4FEA2343D7
:10413800EAD259F8252009EB85036AB9043B994569
:1041480004D307E0994505F1FF3503D253F8042954
:10415800002AF7D0CAF81050384603B0BDE8F08FEF
:10416800002003B0BDE8F08F2DE9F04F16461F463A
:10417800016C9BB00446CDE90467279D41B101233A
:10418800426C9340C1E9012301F0BCFD0023236484
:10419800B7F10009B4BF012300232B60764BBCBFE5
:1041A80029F00049CDF8149033EA090300F0AB80F8
:1041B800DDE904231046194600220023CDE9080151
:1041C800FCF7C8FC804670B10123269A1360289B2F
:1041D800002B00F0C28269481860431E03930398BD
:1041E8001BB0BDE8F08F18AA19ABCDE90032DDE9A4
:1041F8000823204602F07AF85FEA1955824640F013
:104208009880DDE91885454405F23240202840F3BE
:104218009083C0F1400305F2124009FA03F926FA27
:1042280000F049EA0000FCF7B3F90122013D0F92C2
:10423800A1F1F8710022524BFCF76CF848A3D3E9BE
:104248000023FCF71FFA48A3D3E90023FCF764F81E
:10425800064628460F46FCF7ABF945A3D3E90023E9
:10426800FCF710FA02460B4630463946FCF754F87C
:1042780006460F46FCF7B6FC00228346002330466C
:104288003946FCF771FC002840F05A82BBF1160F42
:1042980000F24882DDE908013A4B03EBCB03D3E98E
:1042A8000023FCF761FC002872D00023A8EB050569
:1042B8000E936B1E0BF1FF3B069300F13B8200232C
:1042C8000B93BBF1000F6BDA0B9BCDF81CB0A3EB83
:1042D8000B030B93CBF100030D93249B4FF0000BC2
:1042E800092B66D8052B40F322830025043B249331
:1042F800249B023B032B00F26E86DFE813F03B049D
:1043080038042F04120442F20F73269AC9F31309D2
:10431800136059EA06031CD1289B002B00F057862E
:10432800194B03930833289A039813601BB0BDE810
:10433800F08FDDE90812C2F31303084643F07F51FA
:10434800CDF83C80A5F2FF35DDF8608041F44011DE
:1043580070E7289B002B40F0C8830C4B03933EE783
:1043680061436F63A787D23FB3C8608B288AC63F73
:10437800FB799F501344D33F0000F07F1982000857
:104388000000F83F88830008408200083C8200084B
:10439800A8EB05056B1E069300F1A9840E900B90FF
:1043A800069B5B44CDE9063B00230D93249B092B18
:1043B80098D900230125249325934FF0FF330C95BA
:1043C8000A9300210A9B61641293204601F074FC51
:1043D8000390002800F00786039B23640A9B0E2B9A
:1043E80000F2E980002D00F0E6800799002940F3EB
:1043F8005284B54B01F00F0203EBC203C8054FEA24
:104408002115D3E9006740F1EE83DDE90801AF4BE0
:104418004FF00309D3E90823FCF75EFACDE9100150
:1044280005F00F058DB1DFF8A482E90709D5D8E9B1
:10443800002330463946FCF725F906460F4609F1B0
:1044480001096D1008F10808EFD1DDE910013246C5
:104458003B46FCF741FA06460F460E9B43B1002245
:10446800304639469A4BFCF77FFB002840F03B85E5
:104478004846FCF79DF832463B46FCF703F9954B56
:104488000022FBF749FF0A9B8046A1F15079002BD7
:1044980000F0CE83079B13930A9B10930C9B002B71
:1044A80000F0B784109A884B002003EBC20353E94D
:1044B80002238949FCF710FA42464B46FBF72AFFCC
:1044C80002460B4630463946CDE91423FCF78AFBF1
:1044D8008046FCF76DF802460B4630463946FBF736
:1044E80019FF039D08F1300306460F46024605F8FA
:1044F800013B0B46DDE91401FCF754FB002840F0B2
:104508003B85CDE916ABDDE914ABDDF840804FF013
:10451800000910942AE009F10109C14548DA50461A
:10452800594600226D4BFCF7ADF800226B4B8246D2
:104538008B4630463946FCF7A5F80F460646FCF789
:1045480051FB0446FCF734F802460B463046394620
:10455800FBF7E0FE303452465B4605F8014B064651
:104568000F46FCF701FB002840F0038532463B4626
:1045780000205749FBF7CEFE52465B46FCF7F4FA9B
:104588000028C8D0139BDDF858A0109C039A079305
:1045980002E0954200F0D284A94615F8013D392B76
:1045A800F7D00133DBB22B70079B01330793A0E1EF
:1045B800109CDDE916AB199B002BC0F29380079A7B
:1045C8000E2A00F38F80404B03EBC203D3E900238C
:1045D800CDE90423259B002B1ADA0A9B002B17DC54
:1045E80040F03F83DDE9040100223D4BFCF74AF827
:1045F80002460B46DDE90801FCF7C0FADDF8288021
:104608004546002800F0CD82259B039FDE43D0E27B
:10461800DDE90467DDE9080132463B46FCF75CF951
:10462800FCF7E0FA8046FBF7C3FF32463B46FCF74F
:1046380029F80B460246DDE90801FBF76BFE039DEE
:1046480008F1300305F8013B0A9B012B00F07F833A
:10465800CDF818A04FF001099B46AA4608941DE022
:1046680032463B4620462946FCF736F9FCF7BAFAAB
:104678008046FBF79DFF32463B46FCF703F809F1FD
:1046880001090B46024629462046FBF743FE08F17E
:104698003003CB450AF8013B00F0558300220F4B4D
:1046A800FBF7F0FF0022002304460D46FCF752FA00
:1046B8000028D5D05546089CDDF818A0079BA946C8
:1046C8000133079315E100BF888300086083000861
:1046D8000000F03F00001C400000E03F00002440C4
:1046E800000014400C9A002A3DD0249A012A40F375
:1046F800BC820A9B5F1E0D9BBB42C0F26E82DF1B11
:104708000A9B002BC0F25483069A11460B9A19444F
:1047180016461A4406910B920121204601F09AFB95
:10472800054623E00123A8EB05050E936B1E0693AF
:104738007FF5C5ADC5F101030B9300230693C0E5D2
:104748005846FBF735FF32463B46FCF703FA00288C
:104758007FF49CAD0BF1FF3B98E5C74B039303989F
:104768001BB0BDE8F08F0D9FDDE90B65002E0CDD59
:10477800069A002A09DDB2421346A8BF33460B99B0
:10478800F61AC91AD31A0B9106930D9BD3B10C9B39
:10479800002B00F0A381002F10DD29463A46204661
:1047A80001F01EFC524601460546204601F068FB12
:1047B8000346514620469A4601F0A4FA0D9BDA1B9F
:1047C80040F08D810121204601F044FBBBF1000F30
:1047D800804600F3B380249B012B40F38A814FF07D
:1047E80000090120BBF1000F40F0B480069A104484
:1047F80010F01F0000F09280C0F12003042B40F35A
:10480800F9830B9BC0F11C00034402440B9306443C
:1048180006920B9B002B05DD51461A46204601F0F7
:104828002BFC8246069B002B05DD41461A46204696
:1048380001F022FC80460E9B002B40F035810A9B3C
:10484800002B40F31B810C9B002B40F09A80079BA8
:10485800013307930126039FDDF8289007E05146AE
:1048680000230A22204601F057FA824601364146C3
:104878005046FFF7E9FB4E4500F1300307F8013BCE
:10488800EDDB0A9A0026002ACCBF93464FF0010BB5
:10489800039A9344514601222046049301F0ECFB0D
:1048A8004146824601F05CFC002840F3A8811BF8D1
:1048B800013C039A0BF1FF3B04E05A4500F0E48108
:1048C8001BF8013D392B0BF10109F6D001338BF8A8
:1048D80000304146204601F015FA55B12EB1AE42DE
:1048E80003D03146204601F00DFA2946204601F052
:1048F80009FA5146204601F005FA002389F80030EC
:10490800269B1A46079B1360289B002B3FF467AC35
:104918000398C3F800901BB0BDE8F08F1C200B9BD8
:10492800064403440B93069B0344069371E7012551
:10493800DEE4C0F1200006FA00F074E401465A46AD
:10494800204601F04DFB249B8046012B40F3D1818A
:104958004FF00009D8F8103008EB8303186901F00C
:1049680029FAC0F1200041E7294600230A222046FF
:1049780001F0D2F9129B0546002B40F315830797E7
:104988000A93002E00F32281B9F1000F40F0F9815B
:104998002F460399049B0E4603F001024B1E2499EF
:1049A8000C920A430B920A9A1A440A9241465046BC
:1049B800FFF74AFB29468346504601F0D1FB3A46A9
:1049C80041468146204601F0E9FBC26801460BF1E9
:1049D8003003002A42D106905046089301F0C0FBEC
:1049E80006990490204601F08DF9049A089B1AB99B
:1049F8000B99002900F0CB82B9F1000FC0F2858134
:104A0800249941EA09090C9951EA090100F07D81CC
:104A1800002A00F3D1810A9A06F101099642CB4691
:104A2800337000F0E381514600230A22204601F04A
:104A380073F9BD42824629464FF000034FF00A023F
:104A4800204612D001F068F93946054600230A22AB
:104A5800204601F061F94E460746A7E72046049331
:104A680001F050F90122049BC6E701F055F94E46C2
:104A7800054607469AE700BF18820008249B022BC8
:104A88007EDC0C9B002B7FF47CAF41465046FFF741
:104A9800DBFA079ADDF80CB000F13003013200268A
:104AA80007920BF8013BF5E64146504601F058FBEA
:104AB8000028BFF6C4AE514600230A22204601F062
:104AC8002BF9079B82465F1E0C9B002B7FF44CAF93
:104AD800129B002B40F362820A93BBE60D9A514663
:104AE800204601F07DFA82466CE6BA4B0393033305
:104AF80019E4DDE9041200297FF471AEC2F313034F
:104B0800002B7FF46CAEB44B1340002B00F02A82CC
:104B18000B9B4FF0010901330B93069B013306935E
:104B28005FE601230C93259B079A134412930133E4
:104B3800012B1E46B8BF01260A930021172E616477
:104B48007FF743AC012204235B0003F11400B04259
:104B5800114602F10102F7D9616436E401230C938E
:104B6800259B002B46DD1E4612930A93E5E700239A
:104B78000C93D8E700230C93F2E7129B07970A934C
:104B88000A9B002B7FF440AD41460522204601F0E8
:104B9800C3F880465046414601F0E2FA00287FF704
:104BA80033AD039F31223B46079E03F8012B0136A4
:104BB80003934146204601F0A5F8731CDDF80C90DC
:104BC80007930397002D7FF490AE92E6294632466C
:104BD800204601F051FA0546D6E60D9B0D97FB1AC3
:104BE8009B4400278CE5DDE908234FF00209CDE955
:104BF800102317E4012325930A93FFF7E2BB03D19F
:104C0800049BDB073FF553AED9461BF8013D302B1B
:104C1800FAD05EE64846FBF7CBFC32463B46FBF74C
:104C280031FD00226D4BFBF777FB8046A1F15079EF
:104C38003046394600226A4BFBF76CFB42464B462E
:104C480006460F46FBF7AEFF002840F08781424634
:104C58003046394609F10043FBF786FF00283FF448
:104C6800AAAC4FF000084546CEE40F9A002A00F09F
:104C7800C380069A03F233431A4406920B9A0D9F97
:104C880016461A440B9247E53123079A01320792D8
:104C9800039A13701DE600F04B81DDE90801079BBC
:104CA8005D42504B05F00F0203EBC203D3E900232A
:104CB800FBF7E8FC2D1106460F4600F07D81002326
:104CC8004FF00209DFF82081EA0705D5D8E900236B
:104CD800FBF7D8FC012399446D1008F10808F3D1BB
:104CE800002B3FF4BAAB06460F46FFF7B6BB0E9053
:104CF80020E5049B002B7FF42BAEDDE90412C2F300
:104D08001303002B3FF4FFAE22E6002A12DD5146C2
:104D180001222046049301F0AFF94146824601F092
:104D28001FFA0028049B40F32C81392B00F00C81DA
:104D38000BF13103B14609F8013B079B2E460133BD
:104D48003D460793C5E55546089CDDF818A0024680
:104D58000B46FBF7E1FADDE9042306460F46FBF7AD
:104D680021FF60B9DDE9042330463946FBF7F2FE3E
:104D780000283FF4A3AC18F0010F3FF49FAC039A4E
:104D88000AE42046696800F097FF0646002800F00C
:104D980017812B6905F10C0102339A000C30FBF7DF
:104DA8003FFA31460122204601F066F90746F0E550
:104DB800DDE90A239E1AAFE4392B00F0C580B1461D
:104DC800013309F8013B079B2E4601333D46079303
:104DD8007FE500BF3C8200080000F07F00001C4017
:104DE800000014408883000860830008079A2E4654
:104DF80001323D4607924DE5189B069A0B99C3F17F
:104E080036031A4406920A461A440E460D9F0B9220
:104E180082E410987F49424601EBC0014B4651E9B4
:104E28000201FBF72FFC02460B4630463946CDE916
:104E38001423FBF7D7FE8046FBF7BAFB0B46024666
:104E480039463046FBF766FA06461098039D08F186
:104E5800300301280F4605F8013B1ED0109B039A2A
:104E68001344984600226C4B30463946FBF70AFC3F
:104E78000F460646FBF7B6FE8146FBF799FB02464E
:104E88000B4630463946FBF745FA09F1300905F873
:104E9800019B454506460F46E4D1DDE91489002209
:104EA8005E4B40464946FBF737FA32463B46FBF72E
:104EB8005BFE002858D142464B4600205749FBF775
:104EC80029FA32463B46FBF76DFE00283FF473ABE8
:104ED80015F8013CA946302B05F1FF35F8D0139B96
:104EE8000133079305E50A9B002B3FF493AE129D0F
:104EF800002D7FF760AB0022474B30463946FBF761
:104F0800C1FB06460F4609F10100FBF751FB32468B
:104F18003B46FBF7B7FB0022414BFBF7FDF9079A2D
:104F28008046013A1392A1F150791095FFF7B6BA6D
:104F38004FF00209DDE90867FFF78FBA079B0133D5
:104F480007933123FFF72FBBB3463923079A2E4621
:104F580001323D4607920BF8013BAAE44FF00008E6
:104F680045461EE699463CE4139B039A0793FFF7D0
:104F780013BBDDF858A0109C139BA9460133079377
:104F8800B7E47FF4D7AEDA077FF5D4AECDE6392B98
:104F9800DAD0B9F1000F3FF7CBAECBE6249B022B5A
:104FA8003FF7EBAD079770E5249B022B3FF7E5AD84
:104FB800129B07970A93E4E44FF00209FFF74DBAF2
:104FC800024640F2EA21174B174802F05FFA174BE6
:104FD8000393FFF704B9002520462946656400F0CD
:104FE8006BFE039058B900224FF4D5710D4B0E4853
:104FF80002F04CFA3FF40DACC0F13C008FE44FF0E6
:10500800FF3312930A930123039A259522640C9384
:10501800FFF7D1BA88830008000024400000E03F71
:1050280000001C404C820008608200084082000892
:10503800B1F90C202DE9F0410D461107804647D4FF
:105048006B6842F40062002BAA815EDDAC6A002C1A
:1050580058D00023D8F80060C8F8003093B212F492
:10506800805256D101234046E969A047431C67D0C6
:10507800AB89AC6A5F0705D56A682B6B801A0BB1E0
:10508800EB6BC01A0246E96900234046A047411C61
:1050980041D1D8F80030002B3DD01D2B01D0162B64
:1050A80056D100212A69AB89C5E9002123F40063A0
:1050B800AB81296BC8F8006021B305F14003994220
:1050C80002D0404600F048F900202863BDE8F0818E
:1050D8002F69BFB193B29A0718BF00232E6808BF83
:1050E8006B692F60F61BAB600AE033463A466C6A80
:1050F8004046E969A047041EA6EB0406274417DDCD
:10510800002EF2DC0020BDE8F081EB6B002B9DDC6B
:10511800F8E7286DAEE70021B5F90C302A6923F4C9
:105128000063AB81DB04C5E90021C2D52865C0E76F
:10513800AB894FF0FF3043F04003AB81BDE8F0810D
:10514800D8F80030002B93D01D2B06D0162B04D096
:10515800AB8943F04003AB81D5E7C8F80060D1E7DD
:1051680038B50C46054608B1836BA3B1B4F90C00F9
:10517800B8B1636EDB0701D4810515D528462146F1
:10518800FFF756FF636E0546DA0702D4A3899B052D
:105198000ED5284638BD00F03FF8B4F90C000028B9
:1051A800E7D10546284638BDA06D00F007FAE5E7C7
:1051B800A06D00F005FA284638BD00BF002310B5E1
:1051C8000446C0E90033C0E904338181C28119462D
:1051D80083604366836108225C30FCF739FF074827
:1051E8000749084A084BC4E90740C4E90912E362C1
:1051F80004F15800BDE8104000F0DCB94D64000827
:1052080071640008B1640008D1640008014900F025
:10521800A9B900BF5575000810B50446134800F039
:10522800CDF9A26BEAB90320114904F53B73C4F820
:10523800E832C4E9B820E16360680421FFF7BEFFE3
:10524800A06801220921FFF7B9FFE06802221221B4
:10525800FFF7B4FF01230548A363BDE8104000F041
:10526800AFB90248BDE8104000F0AAB9600A0020B2
:1052780015520008014800F0A1B900BF740A0020C7
:10528800014800F09DB900BF740A002038B5084BEA
:10529800084D5B1B9C1007D0043B1D44013C55F88E
:1052A80004399847002CF9D1BDE8384002F06ABFAC
:1052B800E4850008E0850008F8B50C46234F06464B
:1052C80000F0EEFCBB68C4F57E615D680F3125F027
:1052D80003054B1923F47F6323F00F03A3F58054D0
:1052E800B4F5805F07DB0021304601F099F8BB6810
:1052F8002B44984204D0304600F0D8FC0020F8BD7A
:105308003046614201F08CF801300DD0104AB9687E
:1053180013682D1B45F0010530461B1B4D601360BB
:1053280000F0C4FC0120F8BD0021304601F078F8F7
:10533800BA68831A0F2BDEDD064943F001030C68B7
:105348000349001B53600860D5E700BF3C040020F8
:10535800200A00204408002000295FD0F8B50C4638
:10536800064600F09DFC54F8043CDFF8F4C1A4F1B3
:10537800080023F001014218DCF8087055689742CC
:1053880025F0030500F08980DF07556034D454F810
:10539800087C0CF10804C01B83683944A3426AD016
:1053A80057197F68D0F80CE0C3F80CE0CEF8083045
:1053B800FB0740F1978041F0010343601160B1F5AC
:1053C800007F34D20122DCF80440CB084909134499
:1053D80002FA01F121430CEBC3025CF83340083AAE
:1053E800C0E90242CCF804104CF83300E0603046C3
:1053F800BDE8F84000F05ABC53195B68DF070ED4CB
:1054080029440CF108049368A34273D0D46841F08E
:105418000102DC60A36042604150D0E7704741F070
:105428000103B1F5007F44F8043C1160CAD3B1F51B
:10543800206F4FEA51234AD28B0903F13905ED0059
:1054480003F138025CF805300CEB0504083C9C427B
:1054580059D05A6822F003028A4202D99B689C42BA
:10546800F7D1DC68C0E90234A060D8603046BDE8F6
:10547800F84000F01BBC53195B68DB0766D4D2E91F
:105488000223294441F00104D3609A6044604150EA
:105498003046BDE8F84000F009BCDB07294407D4D2
:1054A80054F8084C001BD0E902232144D3609A60C9
:1054B800294B41F001021B6842608B42CCF808007E
:1054C80095D8264B30461968FFF7F6FE8FE7142B60
:1054D8000AD9542B21D80B0B03F16F05ED0003F10A
:1054E8006E02AFE729448EE703F15C05ED0003F196
:1054F8005B02A7E741F00103CCE90400C0E90244DC
:105508004360415073E70125DCF80410921005FA56
:1055180002F20A43CCF80420A4E7B3F5AA7F06D820
:10552800CB0B03F17805ED0003F177028AE740F22F
:105538005452934206D88B0C03F17D05ED0003F11C
:105548007C027FE74FF47E757E227BE741F0010302
:10555800436011604BE700BF48080020500A002054
:105568003C0400202DE9F843074688464FF000091F
:1055780000F53876D6E90154013D10D4A389013DE0
:10558800012B08D9B4F90E30013304D0214638462E
:10559800C04749EA00096B1C04F16804EED136687B
:1055A800002EE7D14846BDE8F88300BF00487047A1
:1055B8003C090020704700BF704700BF704700BF1C
:1055C800704700BF70B50C46B1F90E10154600299A
:1055D8001E4696B014DB6A4602F0B6F800280FDBC8
:1055E800019A4FF4806302F47042A2F50052B2FAB5
:1055F80082F24FF40060520932602B6016B070BD21
:105608000023A189336011F0800004D0402218469D
:105618002A6016B070BD4FF480632B6016B070BD61
:1056280070B58B890C469D0782B007D5012201F120
:1056380043034A610B600B6102B070BD01AB6A465F
:105648000646FFF7BFFF00990546304600F03AF8D6
:10565800B4F90C3070B11649009AF163019943F01E
:105668008003C4E90402A381206089B92B43A38184
:1056780002B070BD9A05DFD4012123F0030304F1C1
:10568800430243F00203A381616122602261D3E7F0
:105698003046B4F90E1002F0E3F910B9B4F90C3041
:1056A800E4E7A28922F0030242F0010213B2DDE727
:1056B80015520008024B0146186800F003B800BFF5
:1056C8000C0000202DE9F04F01F10B05162D0646C0
:1056D80083B024D8102900F2B68000F0E1FA102532
:1056E80002201823DFF8E88443445C68A3F1080229
:1056F800944200F0B4806368E16823F00303234414
:105708005A68A56842F00102E96030468D600834A5
:105718005A6000F0CBFA204603B0BDE8F08F35F0B0
:10572800070500F19080A94200F28D8000F0B8FAD8
:10573800B5F5FC7FC0F085816B0A00F08B80042BE7
:1057480000F25B81AB0903F1390003F13807C100AE
:10575800DFF87C8441444C680839A14206D10CE04A
:10576800002A80F22281E468A14206D0636823F00F
:1057780003035A1B0F2AF3DD3846D8F81040DFF828
:1057880054C4644577D0626822F00302531B0F2B80
:1057980000F36581002BC8E904CC80F25681B2F58C
:1057A800007F80F006810121D30852090B4401FAD9
:1057B80002F2D8F8041058F8337008EBC30E0A4305
:1057C800AEF10801C4E90271C8F8042048F8334072
:1057D800FC60012183109940914253D8114206D1AF
:1057E80020F003004900114200F10400FAD008EB50
:1057F800C0094C468646E768BC4207D109E1002B40
:1058080080F21081FF68BC4200F003817A6822F0C0
:105818000302531B0F2BF2DD45F0010E3046D7E98A
:1058280002413D4443F00106C7F804E0E1608C60A2
:10583800C8E90455C5E902CC6E60BB5000F036FAE1
:1058480007F1080402E00C2300243360204603B06B
:10585800BDE8F08F4FF4007140203F2778E7DC68FF
:10586800A34208BF02307FF446AFD8F81040DFF8F3
:1058780064C3644587D10121D8F804208310994076
:105888009142ABD9D8F80840676827F00307BD42B2
:1058980002D87B1B0F2B77DCDFF83C93C84BD9F879
:1058A80000201B6801322B4404EB070A00F0248116
:1058B80003F580530F3323F47F6B2BF00F0B5946FE
:1058C800304600F0ADFD411C024600F0E180824503
:1058D80000F2DC80BB4B196859440846196000F097
:1058E8004181D9F80010019301311BBFA2EB0A0ACC
:1058F8005044C9F80020186012F0070A00F00A8125
:10590800CAF108010A44CAF5805193440831A1EB51
:105918000B01C1F30B0949463046009200F080FDA7
:10592800421CDDE9002300F04381801A00EB090BDB
:1059380019684BF0010049444445C8F8082019602B
:10594800506000F01C810F2F40F21B814FF0050CB6
:1059580060680C3F27F0070700F00100384304EBAC
:10596800070E0F2F6060CEE901CC00F23781144694
:105978005068954B1A688A4238BF1960934B1A6869
:105988008A4238BF196086E045F0010243F00103FE
:10599800254462603046C8F8085008346B6000F04F
:1059A80085F9204603B0BDE8F08F23445A68E168C2
:1059B800A7E6B2F5206F4FEA522361D3142B00F209
:1059C800BA8003F15C01C9005B3308EB010758F8A2
:1059D8000110083F8F4200F092804B6823F00303C8
:1059E800934202D989688F42F7D1CF68D8F804204A
:1059F800C4E90217BC60CC60EBE6142B59D9542BD0
:105A080000F2A1802B0B03F16F0003F16E07C100B8
:105A18009EE60EF1010E1EF0030F04F108047FF458
:105A2800EAAE51E03C463A445368F96854F8085FD6
:105A380043F0010353603046E9608D6000F036F9A9
:105A480004E7E80805F108034CE6224453683046A9
:105A580043F001035360083400F028F9F6E645F0F6
:105A6800010743F00101254467603046C8E9045541
:105A7800C5E902CC6960A35000F018F90834E5E6DE
:105A8800930903F13901C90038339EE7444564D0CE
:105A9800D8F80840606820F0030B5D45ABEB0503C0
:105AA80002D80F2B3FF770AF304600F0FFF8002404
:105AB800CCE603F15C0003F15B07C10048E659F846
:105AC80008394B4540F0A98010F0030F00F1FF3072
